:020000040000FA
:100000000A128A11D92F00308A000408840A820754
:10001000003432343034323431340034733469349F
:100020007334743465346D346134203462346C3428
:100030006F34713475346534613464346F34003432
:1000400043346C34613476346534203449346E344E
:1000500063346F34723472346534633474346134AD
:10006000003450346934203444342034203454343F
:10007000203420344334203420346F3468346D34D9
:10008000003443346C346134763465342034433482
:100090006F347234723465346334743461340034D0
:1000A0005034723465347334733420346134203402
:1000B0004B346534793400344D346F346E346934E4
:0C00C00074346F34723465346F340034D3
:10013600F030831603138605F03086048113080019
:1001460001300A128A11DD210A128A110830F400E0
:10015600C930F300F30BAD28F40BAD28B228080024
:100166003134323433344134343435343634423431
:1001760037343834393443342A343034233444342D
:10018600F200F101721CC828C928CB287008F107B3
:100196000310F00D0310F20C7208031DD328D428A7
:1001A600C528710808007E088A007F0882000A12A6
:1001B6008A11D6200A128A118000840A04087D0654
:1001C60003190034FF0A0319FE0ADA28F32803305C
:1001D600F3009730F200F20BEE28F30BEE28F3282B
:1001E6000130F0020030031CF103F102700A031D16
:1001F6000029710A031D00290129EA28080011298E
:10020600730884000A128A1103200A128A110A123C
:100216008A1113220A128A110130F3077308840027
:100226000A128A1103200A128A11003A031D1C2998
:100236001D29032908000A128A11A3200A128A110D
:10024600F4015430F50000300A128A113A210A12DC
:100256008A110B30FA002630F9005D30F800F80BF1
:100266003229F90B3229FA0B322939290800F6000E
:10027600023076020318402941294C2974080F39A7
:100286008038F70077080A128A11DD210A128A11CE
:10029600562974080F39C038F70077080A128A11F0
:1002A600DD210A128A117508F3000A128A11022149
:1002B6000A128A11080000340E3411341134113434
:1002C6000A341B3400340034043411340E3404343C
:1002D60004340A3411340034043400340E34153432
:1002E60004340A3411341B3400340A340A3400341A
:1002F60000340E3411341B3400340A340A3400340A
:1003060011340E3400348316031387012730F400AA
:10031600F530F300F30B8D29F40B8D2902300A1208
:100326008A11DD210A128A1128300A128A11DD216A
:100336000A128A1101300A128A11DD210A128A1163
:100346000C300A128A11DD210A128A1106300A12AD
:100356008A11DD210A128A110800F500083075029B
:100366000318B629B729DC297508F40002300310F2
:10037600F40DFF3E031DBA290310740D403E0A1208
:100386008A11DD210A128A11F60176087307F40034
:1003960074088400831300080A128A1113220A12B1
:1003A6008A110130F60708307602031CDB29DC29A6
:1003B600C8290800F200F0307205F000831203131A
:1003C60007080F397004870007108714000083128E
:1003D600031387100330F1009730F000F00BF1297A
:1003E600F10BF129F6297208F00004300310F00D24
:1003F600FF3E031DF9298312031307080F39700402
:100406008700871400008312031387100830F10059
:10041600C930F000F00B0D2AF10B0D2A122A080044
:10042600F200F0307205F0008312031307080F394B
:1004360070048700071487140000831203138710C3
:100446000330F1009730F000F00B272AF10B272A32
:100456002C2A7208F00004300310F00DFF3E031D35
:100466002F2A8312031307080F3970048700871495
:1004760000008312031387100830F100C930F00022
:10048600F00B432AF10B432A482A0800F4012930CD
:10049600F50001300A128A113A210A128A114030F7
:1004A600F30000300A128A11B0210A128A1138307C
:1004B600F30001300A128A11B0210A128A11303073
:1004C600F30002300A128A11B0210A128A1128306A
:1004D600F30003300A128A11B0210A128A11203061
:1004E600F30004300A128A11B0210A128A11F801A7
:1004F60005307802031C802A812A822A992A033031
:10050600F00078080A128A11C3200A128A11C0382C
:100516000A128A11DD210A128A1178080A128A1132
:1005260013220A128A110130F8077B2A08000130CB
:10053600F2020030031CF303F302720A031DA72A1A
:10054600730A031DA72AA82AB52AF001F101F12A88
:100556000130F0070130F1070130F2020030031CD0
:10056600F303F30270088400831300080319BC2AFE
:10057600BD2ADF2A710884000A128A1103200A1292
:100586008A11003A0319C82AC92ADF2A7208730495
:100596000319CE2ACF2ADF2A710884000A128A118B
:1005A60003200A128A11F4007008840000087406F9
:1005B6000319DE2ADF2AAB2A710884000A128A117F
:1005C60003200A128A11F400700884000008F5005E
:1005D60074087502F000F101031CF1030800831290
:1005E6000313CA00C801C9014A2B56304A06031D27
:1005F600FD2AFE2A002B09140F2B41304A06031D43
:10060600052B062B082B89140F2B52304A06031D87
:100616000D2B0E2B0F2B09157508F1007408F00031
:100626000A128A11E9200A128A115630831203131C
:100636004A06031D1F2B202B222B0910312B41307C
:100646004A06031D272B282B2A2B8910312B5230C3
:100656004A06031D2F2B302B312B09117708F10089
:100666007608F0000A128A11E9200A128A11760821
:100676007407FA0077080318770A7507FB007A08EB
:1006860083120313C8070318C90A7B08C907790828
:100696004902031D502B78084802031C532B542B88
:1006A600F82A0800013083120313D0000030D1006D
:1006B6008030D4000030D500CC01CD01C801C9017D
:1006C6008312031354085004CC0055085104CD007E
:1006D6004C0888000630F2001330F100AD30F0000F
:1006E600F00B732BF10B732BF20B732B7A2B8312FC
:1006F600031303100310500DD000510DD100031049
:100706005508F1005408F0000310F10CF00C7008C5
:10071600D4007108D5000310D41703100130C807A0
:100726000318C90A0030C9074908803AFF0080301B
:100736007F02031DA02B04304802031CA32BA42B0D
:10074600632B103083120313D2000030D30008301D
:10075600D6000030D700CE01CF01CA01CB018312EB
:10076600031356085204CE0057085304CF004E0810
:1007760088000630F2001330F100AD30F000F00BC7
:10078600C22BF10BC22BF20BC22BC92B8312031304
:1007960003100310520DD200530DD3000310570857
:1007A600F1005608F0000310F10CF00C7008D600AA
:1007B6007108D7000310D61503100130CA070318B5
:1007C600CB0A0030CB074B08803AFF0080307F020F
:1007D600031DEF2B04304A02031CF22BF32BB22B22
:1007E6000800013083120313CE000030CF008030A2
:1007F600D0000030D100CC01CD010130C80000305E
:10080600C900831203134E085004CC004F0851044C
:10081600CD004C0888000630F2001330F100AD30F0
:10082600F000F00B142CF10B142CF20B142C1B2CD7
:10083600831203134E08023ECE004F080318013EF2
:10084600003ECF005108F1005008F0000310F10CF3
:10085600F00C7008D0007108D1000130C8070318E9
:10086600C90A0030C9074908803AFF0080307F0274
:10087600031D3F2C05304802031C422C432C042C3C
:10088600093083120313D4000030D5001030D6008F
:100896000030D700D201D30154085604D2005508BF
:1008A6005704D300520888000630F2001330F100D6
:1008B600AD30F000F00B5D2CF10B5D2CF20B5D2CD6
:1008C600642C83120313CA01CB0183120313540849
:1008D600023ED40055080318013E003ED500031021
:1008E600560DD600570DD70054085604D2005508A9
:1008F6005704D300520888000630F2001330F10086
:10090600AD30F000F00B852CF10B852CF20B852C0D
:100916008C2C013083120313CA070318CB0A00304C
:10092600CB074B08803AFF0080307F02031D9D2CC9
:1009360003304A02031CA02CA12C682C0800A0300E
:1009460084004830F0001030F10083130008F200F4
:10095600040AF3007008840072088000040AF0009C
:1009660073088400F10BA82C83120313D801D90154
:10097600DA018312031359085A04031DC32CC42C2D
:10098600E92CFE3086004230F000F00BC82C000047
:10099600CE2C4808D80083120313061ED32CD42C61
:1009A600CC2CD72C4908D800861EDA2CDB2CD52C6B
:1009B600DE2C4A08D800061FE12CE22CDC2CE52CA4
:1009C6004B08D800861FE82CE92CE32C59035A045F
:1009D600031DEE2CEF2C142DFD3086004230F00066
:1009E600F00BF32C0000F92C4C08D80083120313EB
:1009F600061EFE2CFF2CF72C022D4D08D800861E55
:100A0600052D062D002D092D4E08D800061F0C2D8C
:100A16000D2D072D102D4F08D800861F132D142DD0
:100A26000E2D023059065A04031D1A2D1B2D402D7A
:100A3600FB3086004230F000F00B1F2D0000252D04
:100A46005008D80083120313061E2A2D2B2D232DA2
:100A56002E2D5108D800861E312D322D2C2D352DE8
:100A66005208D800061F382D392D332D3C2D53083A
:100A7600D800861F3F2D402D3A2D033059065A04C3
:100A8600031D462D472D6C2DF73086004230F000B1
:100A9600F00B4B2D0000512D5408D8008312031380
:100AA600061E562D572D4F2D5A2D5508D800861E39
:100AB6005D2D5E2D582D612D5608D800061F642D1C
:100AC600652D5F2D682D5708D800861F6B2D6C2D60
:100AD600662D0130D9070318DA0A0030DA075A08FA
:100AE600803AFF0080307F02031D7B2D04305902BF
:100AF600031C7E2D7F2DBC2C83120313580808007F
:100B0600A03083120313D2000030D3000130D4008A
:100B16000030D500CC01CD01C801C90183120313F1
:100B260054085204CC0055085304CD004C088800E4
:100B36000630F2001330F100AD30F000F00BA12DBD
:100B4600F10BA12DF20BA12DA82D8312031353082F
:100B5600F1005208F0000310F10CF00C7008D200FE
:100B66007108D3000310540DD400550DD500540858
:100B76005204CC0055085304CD004C0888000630BA
:100B8600F2001330F100AD30F000F00BC82DF10B80
:100B9600C82DF20BC82DCF2D83120313540852040F
:100BA600CC0055085304CD000310520DD200530D4E
:100BB600D3000310540DD400550DD5000130C807DD
:100BC6000318C90A0030C9074908803AFF00803077
:100BD6007F02031DF02D02304802031CF32DF42D75
:100BE600912DA03083120313D6000030D7000830B1
:100BF600D0000030D100CE01CF01CA01CB01831253
:100C0600031350085604CE0051085704CF004E086F
:100C160088000630F2001330F100AD30F000F00B22
:100C2600122EF10B122EF20B122E192E8312031313
:100C36005708F1005608F0000310F10CF00C70088C
:100C4600D6007108D7005108F1005008F0000310D3
:100C5600F10CF00C7008D0007108D1005008560451
:100C6600CE0051085704CF004E0888000630F20027
:100C76001330F100AD30F000F00B3F2EF10B3F2E9C
:100C8600F20B3F2E462E8312031356085604CE004F
:100C960057085704CF000310560DD600570DD7003E
:100CA6005108F1005008F0000310F10CF00C700828
:100CB600D0007108D1000130CA070318CB0A0030F2
:100CC600CB074B08803AFF0080307F02031D6D2E54
:100CD60002304A02031C702E712E022E080071305B
:100CE600831603138F000A128A1186210A128A11AB
:100CF6000A128A119B200A128A118316031389018C
:100D060085018316031789010A128A1149220A12DC
:100D16008A11831603138801051485140515F40139
:100D26004830F50000300A128A113A210A128A1157
:100D360002300A128A1113220A128A11C0300A12CC
:100D46008A11DD210A128A110A128A11A2240A12B4
:100D56008A11FC007C080319B12EB22EC02E2A304F
:100D66000A128A1113220A128A117D08603E840033
:100D76007C08831380000130FD07023083120313C1
:100D8600DD000430DC00B930DB00DB0BC82EDC0BE9
:100D9600C82EDD0BC82ECF2E05307D02031CD42EA7
:100DA600D52EA72E6030F0000130F1000430F2009D
:100DB6000030F3000A128A119A220A128A11700868
:100DC6007104031DE72EE82E6B2F0A128A11A32049
:100DD6000A128A11F4013930F50000300A128A111C
:100DE6003A210A128A11F430F4000130F500F43089
:100DF600F6000130F700B830F8000B30F900563035
:100E06000A128A11F2220A128A1183120313DE01D0
:100E1600DF01051C0F2F102F392F02308312031309
:100E2600DD000430DC00B930DB00DB0B182FDC0BF7
:100E3600182FDD0B182F1F2F0A128A1183250A126D
:100E46008A11153083120313DD004B30DC00BD30F0
:100E5600DB00DB0B2C2FDC0B2C2FDD0B2C2F332F89
:100E66000A128A111E210A128A11C02F851C3C2FD4
:100E76003D2F522F023083120313DD000430DC00B5
:100E8600B930DB00DB0B452FDC0B452FDD0B452F87
:100E96004C2F0A128A11F4230A128A11242F051DD7
:100EA600552F562F332F023083120313DD000430E3
:100EB600DC00B930DB00DB0B5E2FDC0B5E2FDD0BBD
:100EC6005E2F652F0A128A1155230A128A11242FC2
:100ED6000A128A11A3200A128A11F4011830F500A9
:100EE60000300A128A113A210A128A112C30F400B3
:100EF6000130F500BC30F6000230F700D030F800C3
:100F06000730F90041300A128A11F2220A128A11B8
:100F1600831203135E08013EDE005F080318013EDC
:100F2600003EDF0003305E065F04031D9B2F9C2FEF
:100F3600C02F0A128A11A3200A128A11F401063060
:100F4600F50000300A128A113A210A128A112C3051
:100F5600F4000130F500F430F6000130F7004030BF
:100F6600F8001F30F90052300A128A11F2220A12D2
:100F76008A1183120313DE01DF0115308312031376
:100F8600DD004B30DC00BD30DB00DB0BC82FDC0B9B
:100F9600C82FDD0BC82FCF2F0A128A11A3200A12E1
:100FA6008A11FD01922E0A128A1100288313B0308D
:100FB600FD000030FE00B330FF00A03084000A12AE
:100FC6008A11DA200A128A114830FD000130FE002B
:100FD6005E30FF00203084000A128A11DA200A12DD
:100FE6008A11DE01DF01E001E101E201E301E40132
:0A0FF600FD0183010A128A11722E18
:04400E00D520FF3F7B
:00000001FF
